{
  "contractName": "FIFSRegistrar",
  "abi": [
    {
      "inputs": [
        {
          "name": "ensAddr",
          "type": "address"
        },
        {
          "name": "node",
          "type": "bytes32"
        }
      ],
      "payable": false,
      "stateMutability": "nonpayable",
      "type": "constructor"
    },
    {
      "constant": false,
      "inputs": [
        {
          "name": "subnode",
          "type": "bytes32"
        },
        {
          "name": "owner",
          "type": "address"
        }
      ],
      "name": "register",
      "outputs": [],
      "payable": false,
      "stateMutability": "nonpayable",
      "type": "function"
    }
  ],
  "bytecode": "0x6060604052341561000f57600080fd5b60405160408061038983398101604052808051906020019091908051906020019091905050816000806101000a81548173ffffffffffffffffffffffffffffffffffffffff021916908373ffffffffffffffffffffffffffffffffffffffff160217905550806001816000191690555050506102f9806100906000396000f300606060405260043610610041576000357c0100000000000000000000000000000000000000000000000000000000900463ffffffff168063d22057a914610046575b600080fd5b341561005157600080fd5b61008a60048080356000191690602001909190803573ffffffffffffffffffffffffffffffffffffffff1690602001909190505061008c565b005b8160008060009054906101000a900473ffffffffffffffffffffffffffffffffffffffff1673ffffffffffffffffffffffffffffffffffffffff166302571be36001548460405180836000191660001916815260200182600019166000191681526020019250505060405180910390206000604051602001526040518263ffffffff167c0100000000000000000000000000000000000000000000000000000000028152600401808260001916600019168152602001915050602060405180830381600087803b151561015e57600080fd5b6102c65a03f1151561016f57600080fd5b50505060405180519050905060008173ffffffffffffffffffffffffffffffffffffffff1614806101cb57503373ffffffffffffffffffffffffffffffffffffffff168173ffffffffffffffffffffffffffffffffffffffff16145b15156101d657600080fd5b6000809054906101000a900473ffffffffffffffffffffffffffffffffffffffff1673ffffffffffffffffffffffffffffffffffffffff166306ab592360015486866040518463ffffffff167c010000000000000000000000000000000000000000000000000000000002815260040180846000191660001916815260200183600019166000191681526020018273ffffffffffffffffffffffffffffffffffffffff1673ffffffffffffffffffffffffffffffffffffffff1681526020019350505050600060405180830381600087803b15156102b357600080fd5b6102c65a03f115156102c457600080fd5b505050505050505600a165627a7a72305820b0705a7bd0c77b75048ca925ee8ec9145d513cebb2051dc789776ec2d413b1e10029",
  "source": "pragma solidity ^0.4.18;\n\nimport './ENS.sol';\n\n/**\n * A registrar that allocates subdomains to the first person to claim them.\n */\ncontract FIFSRegistrar {\n    ENS ens;\n    bytes32 rootNode;\n\n    modifier only_owner(bytes32 subnode) {\n        address currentOwner = ens.owner(keccak256(rootNode, subnode));\n        require(currentOwner == 0 || currentOwner == msg.sender);\n        _;\n    }\n\n    /**\n     * Constructor.\n     * @param ensAddr The address of the ENS registry.\n     * @param node The node that this registrar administers.\n     */\n    function FIFSRegistrar(ENS ensAddr, bytes32 node) public {\n        ens = ensAddr;\n        rootNode = node;\n    }\n\n    /**\n     * Register a name, or change the owner of an existing registration.\n     * @param subnode The hash of the label to register.\n     * @param owner The address of the new owner.\n     */\n    function register(bytes32 subnode, address owner) public only_owner(subnode) {\n        ens.setSubnodeOwner(rootNode, subnode, owner);\n    }\n}\n",
  "sourcePath": "/Users/hai.dang/Documents/Development/projects/MBBC/tab-tracker/client/contracts/FIFSRegistrar.sol",
  "compiler": {
    "name": "solc",
    "version": "0.4.19+commit.c4cbbb05.Emscripten.clang"
  },
  "schemaVersion": "1.0.1",
  "updatedAt": "2018-05-16T15:53:45.171Z"
}