{
  "contractName": "Registry",
  "abi": [
    {
      "constant": true,
      "inputs": [
        {
          "name": "",
          "type": "uint256"
        }
      ],
      "name": "userAdresses",
      "outputs": [
        {
          "name": "",
          "type": "address"
        }
      ],
      "payable": false,
      "stateMutability": "view",
      "type": "function"
    },
    {
      "constant": true,
      "inputs": [],
      "name": "total",
      "outputs": [
        {
          "name": "",
          "type": "uint256"
        }
      ],
      "payable": false,
      "stateMutability": "view",
      "type": "function"
    },
    {
      "constant": false,
      "inputs": [
        {
          "name": "_url",
          "type": "string"
        }
      ],
      "name": "_registerProto",
      "outputs": [],
      "payable": false,
      "stateMutability": "nonpayable",
      "type": "function"
    },
    {
      "constant": true,
      "inputs": [],
      "name": "getUsers",
      "outputs": [
        {
          "name": "",
          "type": "address[]"
        }
      ],
      "payable": false,
      "stateMutability": "view",
      "type": "function"
    },
    {
      "constant": true,
      "inputs": [
        {
          "name": "_address",
          "type": "address"
        }
      ],
      "name": "getUser",
      "outputs": [
        {
          "name": "",
          "type": "string"
        }
      ],
      "payable": false,
      "stateMutability": "view",
      "type": "function"
    }
  ],
  "bytecode": "0x6060604052670de0b6b3a7640000600055341561001b57600080fd5b6106348061002a6000396000f30060606040526004361061006c576000357c0100000000000000000000000000000000000000000000000000000000900463ffffffff168062ce8e3e146100715780630a2e0c89146100db5780632322a017146101385780632ddbd13a1461019b5780636f77926b146101c4575b600080fd5b341561007c57600080fd5b610084610276565b6040518080602001828103825283818151815260200191508051906020019060200280838360005b838110156100c75780820151818401526020810190506100ac565b505050509050019250505060405180910390f35b34156100e657600080fd5b610136600480803590602001908201803590602001908080601f0160208091040260200160405190810160405280939291908181526020018383808284378201915050505050509190505061030a565b005b341561014357600080fd5b61015960048080359060200190919050506103e0565b604051808273ffffffffffffffffffffffffffffffffffffffff1673ffffffffffffffffffffffffffffffffffffffff16815260200191505060405180910390f35b34156101a657600080fd5b6101ae61041f565b6040518082815260200191505060405180910390f35b34156101cf57600080fd5b6101fb600480803573ffffffffffffffffffffffffffffffffffffffff16906020019091905050610425565b6040518080602001828103825283818151815260200191508051906020019080838360005b8381101561023b578082015181840152602081019050610220565b50505050905090810190601f1680156102685780820380516001836020036101000a031916815260200191505b509250505060405180910390f35b61027e61050f565b600280548060200260200160405190810160405280929190818152602001828054801561030057602002820191906000526020600020905b8160009054906101000a900473ffffffffffffffffffffffffffffffffffffffff1673ffffffffffffffffffffffffffffffffffffffff16815260200190600101908083116102b6575b5050505050905090565b6000600160003373ffffffffffffffffffffffffffffffffffffffff1673ffffffffffffffffffffffffffffffffffffffff168152602001908152602001600020905081816000019080519060200190610365929190610523565b506002805480600101828161037a91906105a3565b9160005260206000209001600033909190916101000a81548173ffffffffffffffffffffffffffffffffffffffff021916908373ffffffffffffffffffffffffffffffffffffffff16021790555050670de0b6b3a7640000600054016000819055505050565b6002818154811015156103ef57fe5b90600052602060002090016000915054906101000a900473ffffffffffffffffffffffffffffffffffffffff1681565b60005481565b61042d6105cf565b600160008373ffffffffffffffffffffffffffffffffffffffff1673ffffffffffffffffffffffffffffffffffffffff1681526020019081526020016000206000018054600181600116156101000203166002900480601f0160208091040260200160405190810160405280929190818152602001828054600181600116156101000203166002900480156105035780601f106104d857610100808354040283529160200191610503565b820191906000526020600020905b8154815290600101906020018083116104e657829003601f168201915b50505050509050919050565b602060405190810160405280600081525090565b828054600181600116156101000203166002900490600052602060002090601f016020900481019282601f1061056457805160ff1916838001178555610592565b82800160010185558215610592579182015b82811115610591578251825591602001919060010190610576565b5b50905061059f91906105e3565b5090565b8154818355818115116105ca578183600052602060002091820191016105c991906105e3565b5b505050565b602060405190810160405280600081525090565b61060591905b808211156106015760008160009055506001016105e9565b5090565b905600a165627a7a7230582001befb98335cf4634584b78890ef92320e4e13c6eeb42063d9b914d191e897980029",
  "source": "pragma solidity ^0.4.15;\n\n// import './ENSRegistry.sol'; \n\ncontract Registry {\n\n  uint public total = 1000000000000000000; \n  struct User {\n    string url;\n  }\n  \n  mapping (address => User) users; \n  address[] public userAdresses; \n \n  // function _register(address addressOfENS, bytes32 node, string _url) public {\n  //   //  if(ens.owner(node) === msg.sender) \n  //     ENSRegistry Service = ENSRegistry(addressOfENS); \n  //     if (Service.owner(node) == msg.sender){\n  //       var user = users[msg.sender]; \n  //       user.url = _url; \n  //       userAdresses.push(msg.sender); \n  //     }\n  // }\n\n  function _registerProto(string _url) public {\n    //  if(ens.owner(node) === msg.sender) \n        var user = users[msg.sender]; \n        user.url = _url; \n        userAdresses.push(msg.sender); \n        total = total + 1000000000000000000;\n     \n  }\n\n  function getUsers() public view returns (address[]) { \n      return userAdresses; \n  }\n\n  function getUser(address _address) view public returns (string) { \n      return users[_address].url; \n  }\n\n}\n",
  "sourcePath": "/Users/hai.dang/Documents/Development/projects/MBBC/tab-tracker/client/contracts/Registry.sol",
  "compiler": {
    "name": "solc",
    "version": "0.4.19+commit.c4cbbb05.Emscripten.clang"
  },
  "schemaVersion": "1.0.1",
  "updatedAt": "2018-05-16T15:53:45.402Z"
}