{
  "contractName": "Registry",
  "abi": [
    {
      "constant": true,
      "inputs": [
        {
          "name": "",
          "type": "uint256"
        }
      ],
      "name": "userAdresses",
      "outputs": [
        {
          "name": "",
          "type": "address"
        }
      ],
      "payable": false,
      "stateMutability": "view",
      "type": "function"
    },
    {
      "constant": true,
      "inputs": [],
      "name": "total",
      "outputs": [
        {
          "name": "",
          "type": "uint256"
        }
      ],
      "payable": false,
      "stateMutability": "view",
      "type": "function"
    },
    {
      "constant": false,
      "inputs": [
        {
          "name": "addressOfENS",
          "type": "address"
        },
        {
          "name": "node",
          "type": "bytes32"
        },
        {
          "name": "_url",
          "type": "string"
        }
      ],
      "name": "_register",
      "outputs": [],
      "payable": false,
      "stateMutability": "nonpayable",
      "type": "function"
    },
    {
      "constant": false,
      "inputs": [
        {
          "name": "_url",
          "type": "string"
        }
      ],
      "name": "_registerProto",
      "outputs": [],
      "payable": false,
      "stateMutability": "nonpayable",
      "type": "function"
    },
    {
      "constant": true,
      "inputs": [],
      "name": "getUsers",
      "outputs": [
        {
          "name": "",
          "type": "address[]"
        }
      ],
      "payable": false,
      "stateMutability": "view",
      "type": "function"
    },
    {
      "constant": true,
      "inputs": [
        {
          "name": "_address",
          "type": "address"
        }
      ],
      "name": "getUser",
      "outputs": [
        {
          "name": "",
          "type": "string"
        }
      ],
      "payable": false,
      "stateMutability": "view",
      "type": "function"
    }
  ],
  "bytecode": "0x6060604052670de0b6b3a7640000600055341561001b57600080fd5b6108608061002a6000396000f300606060405260043610610077576000357c0100000000000000000000000000000000000000000000000000000000900463ffffffff168062ce8e3e1461007c5780630a2e0c89146100e65780632322a017146101435780632ddbd13a146101a657806336578faf146101cf5780636f77926b14610258575b600080fd5b341561008757600080fd5b61008f61030a565b6040518080602001828103825283818151815260200191508051906020019060200280838360005b838110156100d25780820151818401526020810190506100b7565b505050509050019250505060405180910390f35b34156100f157600080fd5b610141600480803590602001908201803590602001908080601f0160208091040260200160405190810160405280939291908181526020018383808284378201915050505050509190505061039e565b005b341561014e57600080fd5b6101646004808035906020019091905050610474565b604051808273ffffffffffffffffffffffffffffffffffffffff1673ffffffffffffffffffffffffffffffffffffffff16815260200191505060405180910390f35b34156101b157600080fd5b6101b96104b3565b6040518082815260200191505060405180910390f35b34156101da57600080fd5b610256600480803573ffffffffffffffffffffffffffffffffffffffff169060200190919080356000191690602001909190803590602001908201803590602001908080601f016020809104026020016040519081016040528093929190818152602001838380828437820191505050505050919050506104b9565b005b341561026357600080fd5b61028f600480803573ffffffffffffffffffffffffffffffffffffffff16906020019091905050610651565b6040518080602001828103825283818151815260200191508051906020019080838360005b838110156102cf5780820151818401526020810190506102b4565b50505050905090810190601f1680156102fc5780820380516001836020036101000a031916815260200191505b509250505060405180910390f35b61031261073b565b600280548060200260200160405190810160405280929190818152602001828054801561039457602002820191906000526020600020905b8160009054906101000a900473ffffffffffffffffffffffffffffffffffffffff1673ffffffffffffffffffffffffffffffffffffffff168152602001906001019080831161034a575b5050505050905090565b6000600160003373ffffffffffffffffffffffffffffffffffffffff1673ffffffffffffffffffffffffffffffffffffffff1681526020019081526020016000209050818160000190805190602001906103f992919061074f565b506002805480600101828161040e91906107cf565b9160005260206000209001600033909190916101000a81548173ffffffffffffffffffffffffffffffffffffffff021916908373ffffffffffffffffffffffffffffffffffffffff16021790555050670de0b6b3a7640000600054016000819055505050565b60028181548110151561048357fe5b90600052602060002090016000915054906101000a900473ffffffffffffffffffffffffffffffffffffffff1681565b60005481565b6000808491503373ffffffffffffffffffffffffffffffffffffffff168273ffffffffffffffffffffffffffffffffffffffff166302571be3866000604051602001526040518263ffffffff167c0100000000000000000000000000000000000000000000000000000000028152600401808260001916600019168152602001915050602060405180830381600087803b151561055557600080fd5b6102c65a03f1151561056657600080fd5b5050506040518051905073ffffffffffffffffffffffffffffffffffffffff16141561064a57600160003373ffffffffffffffffffffffffffffffffffffffff1673ffffffffffffffffffffffffffffffffffffffff1681526020019081526020016000209050828160000190805190602001906105e592919061074f565b50600280548060010182816105fa91906107cf565b9160005260206000209001600033909190916101000a81548173ffffffffffffffffffffffffffffffffffffffff021916908373ffffffffffffffffffffffffffffffffffffffff160217905550505b5050505050565b6106596107fb565b600160008373ffffffffffffffffffffffffffffffffffffffff1673ffffffffffffffffffffffffffffffffffffffff1681526020019081526020016000206000018054600181600116156101000203166002900480601f01602080910402602001604051908101604052809291908181526020018280546001816001161561010002031660029004801561072f5780601f106107045761010080835404028352916020019161072f565b820191906000526020600020905b81548152906001019060200180831161071257829003601f168201915b50505050509050919050565b602060405190810160405280600081525090565b828054600181600116156101000203166002900490600052602060002090601f016020900481019282601f1061079057805160ff19168380011785556107be565b828001600101855582156107be579182015b828111156107bd5782518255916020019190600101906107a2565b5b5090506107cb919061080f565b5090565b8154818355818115116107f6578183600052602060002091820191016107f5919061080f565b5b505050565b602060405190810160405280600081525090565b61083191905b8082111561082d576000816000905550600101610815565b5090565b905600a165627a7a723058203d977f0927b9d3369fbeec52c57ca71d3a1b8df54b6687453cae27a959640eae0029",
  "source": "pragma solidity ^0.4.15;\n\n import './ENSRegistry.sol'; \n\ncontract Registry {\n\n  uint public total = 1000000000000000000; \n  struct User {\n    string url;\n  }\n  \n  mapping (address => User) users; \n  address[] public userAdresses; \n \n  function _register(address addressOfENS, bytes32 node, string _url) public {\n    //  if(ens.owner(node) === msg.sender) \n      ENSRegistry Service = ENSRegistry(addressOfENS); \n      if (Service.owner(node) == msg.sender){\n        var user = users[msg.sender]; \n        user.url = _url; \n        userAdresses.push(msg.sender); \n      }\n  }\n\n  function _registerProto(string _url) public {\n    //  if(ens.owner(node) === msg.sender) \n        var user = users[msg.sender]; \n        user.url = _url; \n        userAdresses.push(msg.sender); \n        total = total + 1000000000000000000;\n     \n  }\n\n  function getUsers() public view returns (address[]) { \n      return userAdresses; \n  }\n\n  function getUser(address _address) view public returns (string) { \n      return users[_address].url; \n  }\n\n}\n",
  "sourcePath": "/Users/hai.dang/Documents/Development/projects/MBBC/client/contracts/Registry.sol",
  "compiler": {
    "name": "solc",
    "version": "0.4.19+commit.c4cbbb05.Emscripten.clang"
  },
  "schemaVersion": "1.0.1",
  "updatedAt": "2018-05-16T16:29:53.470Z"
}