{
  "contractName": "Adoption",
  "abi": [
    {
      "constant": true,
      "inputs": [],
      "name": "totalAmount",
      "outputs": [
        {
          "name": "",
          "type": "uint256"
        }
      ],
      "payable": false,
      "stateMutability": "view",
      "type": "function"
    },
    {
      "constant": true,
      "inputs": [
        {
          "name": "",
          "type": "uint256"
        }
      ],
      "name": "adopters",
      "outputs": [
        {
          "name": "",
          "type": "address"
        }
      ],
      "payable": false,
      "stateMutability": "view",
      "type": "function"
    },
    {
      "constant": true,
      "inputs": [
        {
          "name": "",
          "type": "uint256"
        }
      ],
      "name": "prices",
      "outputs": [
        {
          "name": "",
          "type": "uint256"
        }
      ],
      "payable": false,
      "stateMutability": "view",
      "type": "function"
    },
    {
      "constant": false,
      "inputs": [
        {
          "name": "petId",
          "type": "uint256"
        }
      ],
      "name": "adopt",
      "outputs": [],
      "payable": true,
      "stateMutability": "payable",
      "type": "function"
    },
    {
      "constant": true,
      "inputs": [],
      "name": "getAdopters",
      "outputs": [
        {
          "name": "",
          "type": "address[16]"
        }
      ],
      "payable": false,
      "stateMutability": "view",
      "type": "function"
    },
    {
      "constant": true,
      "inputs": [],
      "name": "getPrices",
      "outputs": [
        {
          "name": "",
          "type": "uint256[16]"
        }
      ],
      "payable": false,
      "stateMutability": "view",
      "type": "function"
    },
    {
      "constant": true,
      "inputs": [],
      "name": "getTotalAmount",
      "outputs": [
        {
          "name": "",
          "type": "uint256"
        }
      ],
      "payable": false,
      "stateMutability": "view",
      "type": "function"
    }
  ],
  "bytecode": "0x6060604052341561000f57600080fd5b6104998061001e6000396000f300606060405260043610610083576000357c0100000000000000000000000000000000000000000000000000000000900463ffffffff1680631a39d8ef146100885780633de4eb17146100b157806343ae80d31461010257806365ac4341146101655780638588b2c51461018e578063bc31c1c1146101a6578063bd9a548b146101dd575b600080fd5b341561009357600080fd5b61009b61022e565b6040518082815260200191505060405180910390f35b34156100bc57600080fd5b6100c4610234565b6040518082601060200280838360005b838110156100ef5780820151818401526020810190506100d4565b5050505090500191505060405180910390f35b341561010d57600080fd5b61012360048080359060200190919050506102b5565b604051808273ffffffffffffffffffffffffffffffffffffffff1673ffffffffffffffffffffffffffffffffffffffff16815260200191505060405180910390f35b341561017057600080fd5b6101786102ea565b6040518082815260200191505060405180910390f35b6101a460048080359060200190919050506102f4565b005b34156101b157600080fd5b6101c760048080359060200190919050506103a1565b6040518082815260200191505060405180910390f35b34156101e857600080fd5b6101f06103bb565b6040518082601060200280838360005b8381101561021b578082015181840152602081019050610200565b5050505090500191505060405180910390f35b60205481565b61023c610405565b60006010806020026040519081016040528092919082601080156102ab576020028201915b8160009054906101000a900473ffffffffffffffffffffffffffffffffffffffff1673ffffffffffffffffffffffffffffffffffffffff1681526020019060010190808311610261575b5050505050905090565b6000816010811015156102c457fe5b016000915054906101000a900473ffffffffffffffffffffffffffffffffffffffff1681565b6000602054905090565b600081101580156103065750600f8111155b151561031157600080fd5b60108160108110151561032057fe5b01543411151561032f57600080fd5b3360008260108110151561033f57fe5b0160006101000a81548173ffffffffffffffffffffffffffffffffffffffff021916908373ffffffffffffffffffffffffffffffffffffffff1602179055503460108260108110151561038e57fe5b0181905550346020540160208190555050565b6010816010811015156103b057fe5b016000915090505481565b6103c3610444565b601080806020026040519081016040528092919082601080156103fb576020028201915b8154815260200190600101908083116103e7575b5050505050905090565b610200604051908101604052806010905b600073ffffffffffffffffffffffffffffffffffffffff168152602001906001900390816104165790505090565b610200604051908101604052806010905b600081526020019060019003908161045557905050905600a165627a7a72305820876f48c7e33b1d0ba56c5eef7eb2e1d1c9e78a806f1704abcdea663aaa1ae4a50029",
  "source": "pragma solidity ^0.4.17;\n\ncontract Adoption {\n\n  address[16] public adopters;\n  uint256[16] public prices;\n  uint public totalAmount;\n\n  // Adopting a pet\n  function adopt(uint petId) public payable {\n    require(petId >= 0 && petId <= 15);\n    require(msg.value > prices[petId]);\n    \n    adopters[petId] = msg.sender;\n    prices[petId] = msg.value;\n    totalAmount = totalAmount + msg.value;\n  \n  }\n\n  // Retrieving the adopters\n  function getAdopters() public view returns (address[16]) {\n    return adopters;\n  }\n\n  function getPrices() public view returns (uint256[16]) {\n    return prices;\n  }\n\n  function getTotalAmount() public view returns (uint) {\n    return totalAmount;\n  }\n}\n ",
  "sourcePath": "/Users/hai.dang/Documents/Development/projects/MBBC/Blockchain/contracts/Adoption.sol",
  "compiler": {
    "name": "solc",
    "version": "0.4.19+commit.c4cbbb05.Emscripten.clang"
  },
  "schemaVersion": "1.0.1",
  "updatedAt": "2018-05-13T19:05:28.433Z"
}