{
  "contractName": "Adoption",
  "abi": [
    {
      "constant": true,
      "inputs": [],
      "name": "totalAmount",
      "outputs": [
        {
          "name": "",
          "type": "uint256"
        }
      ],
      "payable": false,
      "stateMutability": "view",
      "type": "function"
    },
    {
      "constant": true,
      "inputs": [
        {
          "name": "",
          "type": "uint256"
        }
      ],
      "name": "adopters",
      "outputs": [
        {
          "name": "",
          "type": "address"
        }
      ],
      "payable": false,
      "stateMutability": "view",
      "type": "function"
    },
    {
      "constant": true,
      "inputs": [
        {
          "name": "",
          "type": "uint256"
        }
      ],
      "name": "prices",
      "outputs": [
        {
          "name": "",
          "type": "uint256"
        }
      ],
      "payable": false,
      "stateMutability": "view",
      "type": "function"
    },
    {
      "constant": false,
      "inputs": [
        {
          "name": "petId",
          "type": "uint256"
        }
      ],
      "name": "adopt",
      "outputs": [],
      "payable": true,
      "stateMutability": "payable",
      "type": "function"
    },
    {
      "constant": true,
      "inputs": [],
      "name": "getAdopters",
      "outputs": [
        {
          "name": "",
          "type": "address[16]"
        }
      ],
      "payable": false,
      "stateMutability": "view",
      "type": "function"
    },
    {
      "constant": true,
      "inputs": [],
      "name": "getPrices",
      "outputs": [
        {
          "name": "",
          "type": "uint256[16]"
        }
      ],
      "payable": false,
      "stateMutability": "view",
      "type": "function"
    },
    {
      "constant": true,
      "inputs": [],
      "name": "getTotalAmount",
      "outputs": [
        {
          "name": "",
          "type": "uint256"
        }
      ],
      "payable": false,
      "stateMutability": "view",
      "type": "function"
    }
  ],
  "bytecode": "0x608060405234801561001057600080fd5b5061049d806100206000396000f300608060405260043610610083576000357c0100000000000000000000000000000000000000000000000000000000900463ffffffff1680631a39d8ef146100885780633de4eb17146100b357806343ae80d31461010657806365ac4341146101735780638588b2c51461019e578063bc31c1c1146101be578063bd9a548b146101ff575b600080fd5b34801561009457600080fd5b5061009d610252565b6040518082815260200191505060405180910390f35b3480156100bf57600080fd5b506100c8610258565b6040518082601060200280838360005b838110156100f35780820151818401526020810190506100d8565b5050505090500191505060405180910390f35b34801561011257600080fd5b50610131600480360381019080803590602001909291905050506102d9565b604051808273ffffffffffffffffffffffffffffffffffffffff1673ffffffffffffffffffffffffffffffffffffffff16815260200191505060405180910390f35b34801561017f57600080fd5b5061018861030e565b6040518082815260200191505060405180910390f35b6101bc60048036038101908080359060200190929190505050610318565b005b3480156101ca57600080fd5b506101e9600480360381019080803590602001909291905050506103c5565b6040518082815260200191505060405180910390f35b34801561020b57600080fd5b506102146103df565b6040518082601060200280838360005b8381101561023f578082015181840152602081019050610224565b5050505090500191505060405180910390f35b60205481565b610260610429565b60006010806020026040519081016040528092919082601080156102cf576020028201915b8160009054906101000a900473ffffffffffffffffffffffffffffffffffffffff1673ffffffffffffffffffffffffffffffffffffffff1681526020019060010190808311610285575b5050505050905090565b6000816010811015156102e857fe5b016000915054906101000a900473ffffffffffffffffffffffffffffffffffffffff1681565b6000602054905090565b6000811015801561032a5750600f8111155b151561033557600080fd5b60108160108110151561034457fe5b01543411151561035357600080fd5b3360008260108110151561036357fe5b0160006101000a81548173ffffffffffffffffffffffffffffffffffffffff021916908373ffffffffffffffffffffffffffffffffffffffff160217905550346010826010811015156103b257fe5b0181905550346020540160208190555050565b6010816010811015156103d457fe5b016000915090505481565b6103e761044d565b6010808060200260405190810160405280929190826010801561041f576020028201915b81548152602001906001019080831161040b575b5050505050905090565b61020060405190810160405280601090602082028038833980820191505090505090565b610200604051908101604052806010906020820280388339808201915050905050905600a165627a7a72305820bb28b328bae621574b13799c3aadd23d87fb0c089ab1ce5420a5841c21780b890029",
  "source": "pragma solidity ^0.4.17;\n\ncontract Adoption {\n\n  address[16] public adopters;\n  uint256[16] public prices;\n  uint public totalAmount;\n\n  // Adopting a pet\n  function adopt(uint petId) public payable {\n    require(petId >= 0 && petId <= 15);\n    require(msg.value > prices[petId]);\n    \n    adopters[petId] = msg.sender;\n    prices[petId] = msg.value;\n    totalAmount = totalAmount + msg.value;\n  \n  }\n\n  // Retrieving the adopters\n  function getAdopters() public view returns (address[16]) {\n    return adopters;\n  }\n\n  function getPrices() public view returns (uint256[16]) {\n    return prices;\n  }\n\n  function getTotalAmount() public view returns (uint) {\n    return totalAmount;\n  }\n}\n ",
  "sourcePath": "/Users/hai.dang/Development/projects/MBBC/Blockchain/contracts/Adoption.sol",
  "compiler": {
    "name": "solc",
    "version": "0.4.24+commit.e67f0147.Emscripten.clang"
  },
  "schemaVersion": "2.0.0",
  "updatedAt": "2018-05-23T12:49:19.292Z"
}