{
  "contractName": "Registry",
  "abi": [
    {
      "constant": true,
      "inputs": [
        {
          "name": "",
          "type": "uint256"
        }
      ],
      "name": "userAdresses",
      "outputs": [
        {
          "name": "",
          "type": "address"
        }
      ],
      "payable": false,
      "stateMutability": "view",
      "type": "function"
    },
    {
      "constant": true,
      "inputs": [],
      "name": "total",
      "outputs": [
        {
          "name": "",
          "type": "uint256"
        }
      ],
      "payable": false,
      "stateMutability": "view",
      "type": "function"
    },
    {
      "constant": false,
      "inputs": [
        {
          "name": "_url",
          "type": "string"
        }
      ],
      "name": "_register",
      "outputs": [],
      "payable": false,
      "stateMutability": "nonpayable",
      "type": "function"
    },
    {
      "constant": true,
      "inputs": [],
      "name": "getUsers",
      "outputs": [
        {
          "name": "",
          "type": "address[]"
        }
      ],
      "payable": false,
      "stateMutability": "view",
      "type": "function"
    },
    {
      "constant": true,
      "inputs": [],
      "name": "getTotal",
      "outputs": [
        {
          "name": "",
          "type": "uint256"
        }
      ],
      "payable": false,
      "stateMutability": "view",
      "type": "function"
    },
    {
      "constant": true,
      "inputs": [
        {
          "name": "_address",
          "type": "address"
        }
      ],
      "name": "getUser",
      "outputs": [
        {
          "name": "",
          "type": "string"
        }
      ],
      "payable": false,
      "stateMutability": "view",
      "type": "function"
    }
  ],
  "bytecode": "0x6060604052670de0b6b3a7640000600055341561001b57600080fd5b6106718061002a6000396000f300606060405260043610610077576000357c0100000000000000000000000000000000000000000000000000000000900463ffffffff168062ce8e3e1461007c5780632322a017146100e65780632ddbd13a146101495780636f77926b14610172578063775a25e314610224578063d5a9ae881461024d575b600080fd5b341561008757600080fd5b61008f6102aa565b6040518080602001828103825283818151815260200191508051906020019060200280838360005b838110156100d25780820151818401526020810190506100b7565b505050509050019250505060405180910390f35b34156100f157600080fd5b610107600480803590602001909190505061033e565b604051808273ffffffffffffffffffffffffffffffffffffffff1673ffffffffffffffffffffffffffffffffffffffff16815260200191505060405180910390f35b341561015457600080fd5b61015c61037d565b6040518082815260200191505060405180910390f35b341561017d57600080fd5b6101a9600480803573ffffffffffffffffffffffffffffffffffffffff16906020019091905050610383565b6040518080602001828103825283818151815260200191508051906020019080838360005b838110156101e95780820151818401526020810190506101ce565b50505050905090810190601f1680156102165780820380516001836020036101000a031916815260200191505b509250505060405180910390f35b341561022f57600080fd5b61023761046d565b6040518082815260200191505060405180910390f35b341561025857600080fd5b6102a8600480803590602001908201803590602001908080601f01602080910402602001604051908101604052809392919081815260200183838082843782019150505050505091905050610476565b005b6102b261054c565b600280548060200260200160405190810160405280929190818152602001828054801561033457602002820191906000526020600020905b8160009054906101000a900473ffffffffffffffffffffffffffffffffffffffff1673ffffffffffffffffffffffffffffffffffffffff16815260200190600101908083116102ea575b5050505050905090565b60028181548110151561034d57fe5b90600052602060002090016000915054906101000a900473ffffffffffffffffffffffffffffffffffffffff1681565b60005481565b61038b610560565b600160008373ffffffffffffffffffffffffffffffffffffffff1673ffffffffffffffffffffffffffffffffffffffff1681526020019081526020016000206000018054600181600116156101000203166002900480601f0160208091040260200160405190810160405280929190818152602001828054600181600116156101000203166002900480156104615780601f1061043657610100808354040283529160200191610461565b820191906000526020600020905b81548152906001019060200180831161044457829003601f168201915b50505050509050919050565b60008054905090565b6000600160003373ffffffffffffffffffffffffffffffffffffffff1673ffffffffffffffffffffffffffffffffffffffff1681526020019081526020016000209050818160000190805190602001906104d1929190610574565b50600280548060010182816104e691906105f4565b9160005260206000209001600033909190916101000a81548173ffffffffffffffffffffffffffffffffffffffff021916908373ffffffffffffffffffffffffffffffffffffffff16021790555050670de0b6b3a7640000600054016000819055505050565b602060405190810160405280600081525090565b602060405190810160405280600081525090565b828054600181600116156101000203166002900490600052602060002090601f016020900481019282601f106105b557805160ff19168380011785556105e3565b828001600101855582156105e3579182015b828111156105e25782518255916020019190600101906105c7565b5b5090506105f09190610620565b5090565b81548183558181151161061b5781836000526020600020918201910161061a9190610620565b5b505050565b61064291905b8082111561063e576000816000905550600101610626565b5090565b905600a165627a7a723058209946e5c1a783044763a20247acac42e530e18cce064dba529c31781d5f99b4320029",
  "source": "pragma solidity ^0.4.17;\n\ncontract Registry {\n\n  uint public total = 1000000000000000000; \n\n  struct User {\n    string url;\n  }\n  \n  mapping (address => User) users; \n  address[] public userAdresses; \n \n  function _register(string _url) public {\n      var user = users[msg.sender]; \n      user.url = _url; \n\n      userAdresses.push(msg.sender); \n      total = total + 1000000000000000000; \n  }\n\n  function getUsers() public view returns (address[]) { \n      return userAdresses; \n  }\n\n  function getTotal() public view returns (uint) {\n      return total;\n  }\n\n  function getUser(address _address) view public returns (string) { \n      return users[_address].url; \n  }\n\n}\n",
  "sourcePath": "/Users/hai.dang/Documents/Development/petshop/HA10/contracts/Registry.sol",
  "compiler": {
    "name": "solc",
    "version": "0.4.19+commit.c4cbbb05.Emscripten.clang"
  },
  "schemaVersion": "1.0.1",
  "updatedAt": "2018-05-03T10:21:12.490Z"
}