{
  "contractName": "URLResolver",
  "abi": [
    {
      "inputs": [
        {
          "name": "ensAddr",
          "type": "address"
        }
      ],
      "payable": false,
      "stateMutability": "nonpayable",
      "type": "constructor"
    },
    {
      "anonymous": false,
      "inputs": [
        {
          "indexed": true,
          "name": "node",
          "type": "bytes32"
        },
        {
          "indexed": false,
          "name": "url",
          "type": "string"
        }
      ],
      "name": "URLChanged",
      "type": "event"
    },
    {
      "anonymous": false,
      "inputs": [
        {
          "indexed": true,
          "name": "node",
          "type": "bytes32"
        },
        {
          "indexed": false,
          "name": "x",
          "type": "bytes32"
        },
        {
          "indexed": false,
          "name": "y",
          "type": "bytes32"
        }
      ],
      "name": "PubkeyChanged",
      "type": "event"
    },
    {
      "constant": false,
      "inputs": [
        {
          "name": "node",
          "type": "bytes32"
        },
        {
          "name": "x",
          "type": "bytes32"
        },
        {
          "name": "y",
          "type": "bytes32"
        }
      ],
      "name": "setPubkey",
      "outputs": [],
      "payable": false,
      "stateMutability": "nonpayable",
      "type": "function"
    },
    {
      "constant": true,
      "inputs": [
        {
          "name": "node",
          "type": "bytes32"
        }
      ],
      "name": "pubkey",
      "outputs": [
        {
          "name": "x",
          "type": "bytes32"
        },
        {
          "name": "y",
          "type": "bytes32"
        }
      ],
      "payable": false,
      "stateMutability": "view",
      "type": "function"
    },
    {
      "constant": false,
      "inputs": [
        {
          "name": "node",
          "type": "bytes32"
        },
        {
          "name": "url",
          "type": "string"
        }
      ],
      "name": "setUrl",
      "outputs": [],
      "payable": false,
      "stateMutability": "nonpayable",
      "type": "function"
    },
    {
      "constant": true,
      "inputs": [
        {
          "name": "node",
          "type": "bytes32"
        }
      ],
      "name": "url",
      "outputs": [
        {
          "name": "",
          "type": "string"
        }
      ],
      "payable": false,
      "stateMutability": "view",
      "type": "function"
    },
    {
      "constant": true,
      "inputs": [
        {
          "name": "interfaceID",
          "type": "bytes4"
        }
      ],
      "name": "supportsInterface",
      "outputs": [
        {
          "name": "",
          "type": "bool"
        }
      ],
      "payable": false,
      "stateMutability": "pure",
      "type": "function"
    }
  ],
  "bytecode": "0x608060405234801561001057600080fd5b506040516020806109f283398101806040528101908080519060200190929190505050806000806101000a81548173ffffffffffffffffffffffffffffffffffffffff021916908373ffffffffffffffffffffffffffffffffffffffff1602179055505061096f806100836000396000f30060806040526004361061006d576000357c0100000000000000000000000000000000000000000000000000000000900463ffffffff16806301ffc9a71461007257806329cd62ea146100d65780633e3e352f14610123578063c659d4431461019a578063c869023314610244575b600080fd5b34801561007e57600080fd5b506100bc60048036038101908080357bffffffffffffffffffffffffffffffffffffffffffffffffffffffff191690602001909291905050506102a0565b604051808215151515815260200191505060405180910390f35b3480156100e257600080fd5b506101216004803603810190808035600019169060200190929190803560001916906020019092919080356000191690602001909291905050506103e3565b005b34801561012f57600080fd5b506101986004803603810190808035600019169060200190929190803590602001908201803590602001908080601f01602080910402602001604051908101604052809392919081815260200183838082843782019150505050505091929192905050506105a8565b005b3480156101a657600080fd5b506101c9600480360381019080803560001916906020019092919050505061078e565b6040518080602001828103825283818151815260200191508051906020019080838360005b838110156102095780820151818401526020810190506101ee565b50505050905090810190601f1680156102365780820380516001836020036101000a031916815260200191505b509250505060405180910390f35b34801561025057600080fd5b50610273600480360381019080803560001916906020019092919050505061084e565b60405180836000191660001916815260200182600019166000191681526020019250505060405180910390f35b600063c659d4437c0100000000000000000000000000000000000000000000000000000000027bffffffffffffffffffffffffffffffffffffffffffffffffffffffff1916827bffffffffffffffffffffffffffffffffffffffffffffffffffffffff19161480610371575063c86902337c0100000000000000000000000000000000000000000000000000000000027bffffffffffffffffffffffffffffffffffffffffffffffffffffffff1916827bffffffffffffffffffffffffffffffffffffffffffffffffffffffff1916145b806103dc575063c659d4437c0100000000000000000000000000000000000000000000000000000000027bffffffffffffffffffffffffffffffffffffffffffffffffffffffff1916827bffffffffffffffffffffffffffffffffffffffffffffffffffffffff1916145b9050919050565b823373ffffffffffffffffffffffffffffffffffffffff166000809054906101000a900473ffffffffffffffffffffffffffffffffffffffff1673ffffffffffffffffffffffffffffffffffffffff166302571be3836040518263ffffffff167c0100000000000000000000000000000000000000000000000000000000028152600401808260001916600019168152602001915050602060405180830381600087803b15801561049357600080fd5b505af11580156104a7573d6000803e3d6000fd5b505050506040513d60208110156104bd57600080fd5b810190808051906020019092919050505073ffffffffffffffffffffffffffffffffffffffff161415156104f057600080fd5b6040805190810160405280846000191681526020018360001916815250600160008660001916600019168152602001908152602001600020600101600082015181600001906000191690556020820151816001019060001916905590505083600019167f1d6f5e03d3f63eb58751986629a5439baee5079ff04f345becb66e23eb154e46848460405180836000191660001916815260200182600019166000191681526020019250505060405180910390a250505050565b813373ffffffffffffffffffffffffffffffffffffffff166000809054906101000a900473ffffffffffffffffffffffffffffffffffffffff1673ffffffffffffffffffffffffffffffffffffffff166302571be3836040518263ffffffff167c0100000000000000000000000000000000000000000000000000000000028152600401808260001916600019168152602001915050602060405180830381600087803b15801561065857600080fd5b505af115801561066c573d6000803e3d6000fd5b505050506040513d602081101561068257600080fd5b810190808051906020019092919050505073ffffffffffffffffffffffffffffffffffffffff161415156106b557600080fd5b8160016000856000191660001916815260200190815260200160002060000190805190602001906106e792919061089e565b5082600019167f6efbd7a72b16f5deaacbb8782b2646a4a60ed93a1359c59061c677db5f663db4836040518080602001828103825283818151815260200191508051906020019080838360005b8381101561074f578082015181840152602081019050610734565b50505050905090810190601f16801561077c5780820380516001836020036101000a031916815260200191505b509250505060405180910390a2505050565b60606001600083600019166000191681526020019081526020016000206000018054600181600116156101000203166002900480601f0160208091040260200160405190810160405280929190818152602001828054600181600116156101000203166002900480156108425780601f1061081757610100808354040283529160200191610842565b820191906000526020600020905b81548152906001019060200180831161082557829003601f168201915b50505050509050919050565b600080600160008460001916600019168152602001908152602001600020600101600001546001600085600019166000191681526020019081526020016000206001016001015491509150915091565b828054600181600116156101000203166002900490600052602060002090601f016020900481019282601f106108df57805160ff191683800117855561090d565b8280016001018555821561090d579182015b8281111561090c5782518255916020019190600101906108f1565b5b50905061091a919061091e565b5090565b61094091905b8082111561093c576000816000905550600101610924565b5090565b905600a165627a7a723058202b17f3b14ee2b5971b826acb89f7bc52f3f5429ef08bd5916a67b15bf19a98ff0029",
  "source": "pragma solidity ^0.4.21;\n\n/**\n * A simple resolver anyone can use; only allows the owner of a node to set its\n * address.\n */\ncontract URLResolver {\n\n    bytes4 constant INTERFACE_META_ID = 0x01ffc9a7;\n    bytes4 constant PUBKEY_INTERFACE_ID = 0xc8690233;\n    bytes4 constant URL_INTERFACE_ID = 0xc659d443;\n\n    event URLChanged(bytes32 indexed node, string url);\n    event PubkeyChanged(bytes32 indexed node, bytes32 x, bytes32 y);\n\n    struct PublicKey {\n        bytes32 x;\n        bytes32 y;\n    }\n\n    struct Record {\n        string url;\n        PublicKey pubkey;\n    }\n\n    ENS ens;\n\n    mapping (bytes32 => Record) records;\n\n    modifier only_owner(bytes32 node) {\n        require(ens.owner(node) == msg.sender);\n        _;\n    }\n\n    /**\n     * Constructor.\n     * @param ensAddr The ENS registrar contract.\n     */\n    constructor (ENS ensAddr) public {\n        ens = ensAddr;\n    }\n\n    /**\n     * Sets the SECP256k1 public key associated with an ENS node.\n     * @param node The ENS node to query\n     * @param x the X coordinate of the curve point for the public key.\n     * @param y the Y coordinate of the curve point for the public key.\n     */\n    function setPubkey(bytes32 node, bytes32 x, bytes32 y) public only_owner(node) {\n        records[node].pubkey = PublicKey(x, y);\n        emit PubkeyChanged(node, x, y);\n    }\n\n    /**\n     * Returns the SECP256k1 public key associated with an ENS node.\n     * Defined in EIP 619.\n     * @param node The ENS node to query\n     * @return x, y the X and Y coordinates of the curve point for the public key.\n     */\n    function pubkey(bytes32 node) public view returns (bytes32 x, bytes32 y) {\n        return (records[node].pubkey.x, records[node].pubkey.y);\n    }\n\n    function setUrl(bytes32 node, string url) public only_owner(node) {\n        records[node].url = url;\n        emit URLChanged(node,url);\n    }\n\n    function url(bytes32 node) public view returns (string) {\n        return records[node].url;\n    }\n\n\n    /**\n     * Returns true if the resolver implements the interface specified by the provided hash.\n     * @param interfaceID The ID of the interface to check for.\n     * @return True if the contract implements the requested interface.\n     */\n    function supportsInterface(bytes4 interfaceID) public pure returns (bool) {\n        return interfaceID == URL_INTERFACE_ID ||\n        interfaceID == PUBKEY_INTERFACE_ID ||\n        interfaceID == URL_INTERFACE_ID;\n    }\n}\n\ninterface ENS {\n\n    // Logged when the owner of a node assigns a new owner to a subnode.\n    event NewOwner(bytes32 indexed node, bytes32 indexed label, address owner);\n\n    // Logged when the owner of a node transfers ownership to a new account.\n    event Transfer(bytes32 indexed node, address owner);\n\n    // Logged when the resolver for a node changes.\n    event NewResolver(bytes32 indexed node, address resolver);\n\n    // Logged when the TTL of a node changes\n    event NewTTL(bytes32 indexed node, uint64 ttl);\n\n\n    function setSubnodeOwner(bytes32 node, bytes32 label, address owner) external;\n    function setResolver(bytes32 node, address resolver) external;\n    function setOwner(bytes32 node, address owner) external;\n    function setTTL(bytes32 node, uint64 ttl) external;\n    function owner(bytes32 node) external view returns (address);\n    function resolver(bytes32 node) external view returns (address);\n    function ttl(bytes32 node) external view returns (uint64);\n\n}\n",
  "sourcePath": "/Users/hai.dang/Development/projects/MBBC/Blockchain/contracts/URLResolver.sol",
  "compiler": {
    "name": "solc",
    "version": "0.4.24+commit.e67f0147.Emscripten.clang"
  },
  "schemaVersion": "2.0.0",
  "updatedAt": "2018-05-23T08:46:45.970Z"
}